:1000000019C033C032C031C030C02FC09CC12DC018
:10001000A5C02BC02AC029C028C027C026C025C023
:1000200024C023C022C021C020C01FC01EC01DC0CC
:100030001CC01BC011241FBECFEFCDBFDFE3DEBF4E
:100040001FE3A0E0BFE3E0EDF4E002C005900D92F5
:10005000A430B107D9F72FE3A4E0BFE301C01D929C
:10006000A730B207E1F7DDD0B1C1CACF813051F07E
:1000700018F0823069F0089570E06093380A709348
:10008000390A089570E060933A0A70933B0A089524
:1000900070E060933C0A70933D0A0895E0E0F4E05C
:1000A0008EE0818382898068828B83898068838BDC
:1000B00081898068818BE0E0FAE0818183608183BF
:1000C0008FEF90E086A397A3828581608287089551
:1000D000813049F4E0E0FAE08181806781838081AA
:1000E000816080830895E0E0FAE081818F788183E8
:1000F00080818E7F80830895CF93DF93FC013081D0
:100100002091053F231738F1EC018091043F91E0E5
:10011000980F9093043F40D169814CD1682F80E0C3
:10012000A5DF8091013F91E0980F9093013F34D17A
:10013000698140D1682F81E099DF8091003F91E093
:10014000980F9093003F28D1698134D1682F82E0C5
:100150008DDF1092053FDF91CF9108951F920F928E
:100160000FB60F9211248F93EF93FF938091053F69
:100170008F5F8093053FE0E0FAE0838581608387AD
:10018000FF91EF918F910F900FBE0F901F901895D8
:1001900088ED84BFE0E6F0E021E0208384BF918118
:1001A0009E7F918384BF228308956230C1F028F43A
:1001B000662349F0613069F028C06430D9F0A0F0BE
:1001C0006530E9F022C021E0FC01208320E1218399
:1001D000089521E0FC01208324E02183089521E09B
:1001E000FC0120832183089524E0FC01208320E189
:1001F0002183089524E0FC0120832183089524E0D5
:10020000FC01208321E02183089521E0FC0120836B
:1002100020E121830895BCDF7AD040DF6AD0C2D0CC
:100220000895CF93DF9300D0CDB7DEB784E0898304
:1002300080E18A8360E0CE010196B7DFECDF809138
:100240000804882314F081E058D081E041DF7894DD
:1002500003C0CE01019650DF809108048823CCF7BB
:1002600000E0F12C10E0CE01019646DF9091063FB0
:1002700090FF1DC0812F90E0880F991F9091080476
:100280009095991F9927991F192F182B812F8F70DF
:10029000873041F40F5F063008F000E0602FCE0198
:1002A000019683DF8091063F8E7F8093063F909179
:1002B000063F91FFD8CF2F2D30E0220F331F8091C2
:1002C00008048095881F8827881FF82EF22A8F2D12
:1002D0008F70873041F480E0FBDE80910804882332
:1002E000E4F780E00AD09091063F9D7F9093063F0F
:1002F000BACF80E4809301040895882321F080E43C
:1003000080930504089580E4809306040895E0E452
:10031000F1E08781816087838091410182FDFCCF7C
:10032000E0E4F1E08AE090E0828793878281816057
:1003300082838091410180FDFCCFE0E4F1E0808187
:100340008160808308951F920F920FB60F9211243F
:100350008F93EF93FF938091063F81608093063FD8
:100360008091023F81508093023F811108C08091AB
:10037000063F82608093063F83E38093023FE0E480
:10038000F1E0838181608383FF91EF918F910F90E2
:100390000FBE0F901F901895E82FF0E0E053FC4738
:1003A00080810895E0E0F4E080E8828387898860B6
:1003B000878B0895991B79E004C0991F961708F060
:1003C000961B881F7A95C9F780950895F894FFCFFA
:1003D00083898F959BA2A7ADB3B9BEC4C9CED3D72D
:1003E000DCE0E4E8EBEEF1F4F6F9FAFCFDFEFFFFE9
:1003F000FFFFFEFDFCFAF9F6F4F1EEEBE8E4E0DCD9
:10040000D7D3CEC9C4BEB9B3ADA7A29B958F8983FC
:100410007C76706A645D58524C46413B36312C28DC
:10042000231F1B1714110E0B090605030201000000
:1004300000000102030506090B0E1114171B1F23F0
:10044000282C31363B41464C52585D646A70767CAC
:1004500083898F959BA2A7ADB3B9BEC4C9CED3D7AC
:10046000DCE0E4E8EBEEF1F4F6F9FAFCFDFEFFFF68
:10047000FFFFFEFDFCFAF9F6F4F1EEEBE8E4E0DC58
:10048000D7D3CEC9C4BEB9B3ADA7A29B958F89837C
:100490007C76706A645D58524C46413B36312C285C
:1004A000231F1B1714110E0B090605030201000080
:1004B00000000102030506090B0E1114171B1F2370
:1004C000282C31363B41464C52585D646A70767C2C
:0404D000AB553300F5
:00000001FF
